{
  "contractName": "Lottery",
  "abi": [
    {
      "inputs": [],
      "stateMutability": "nonpayable",
      "type": "constructor"
    },
    {
      "inputs": [],
      "name": "organizer",
      "outputs": [
        {
          "internalType": "address",
          "name": "",
          "type": "address"
        }
      ],
      "stateMutability": "view",
      "type": "function",
      "constant": true
    },
    {
      "inputs": [
        {
          "internalType": "uint256",
          "name": "",
          "type": "uint256"
        }
      ],
      "name": "participants",
      "outputs": [
        {
          "internalType": "address payable",
          "name": "",
          "type": "address"
        }
      ],
      "stateMutability": "view",
      "type": "function",
      "constant": true
    },
    {
      "stateMutability": "payable",
      "type": "receive",
      "payable": true
    },
    {
      "inputs": [],
      "name": "getBalance",
      "outputs": [
        {
          "internalType": "uint256",
          "name": "",
          "type": "uint256"
        }
      ],
      "stateMutability": "view",
      "type": "function",
      "constant": true
    },
    {
      "inputs": [],
      "name": "random",
      "outputs": [
        {
          "internalType": "uint256",
          "name": "",
          "type": "uint256"
        }
      ],
      "stateMutability": "view",
      "type": "function",
      "constant": true
    },
    {
      "inputs": [],
      "name": "selectWinner",
      "outputs": [],
      "stateMutability": "nonpayable",
      "type": "function"
    }
  ],
  "bytecode": "0x608060405234801561001057600080fd5b50336000806101000a81548173ffffffffffffffffffffffffffffffffffffffff021916908373ffffffffffffffffffffffffffffffffffffffff160217905550610592806100606000396000f3fe60806040526004361061004e5760003560e01c806312065fe0146100d157806333a99e04146100fc57806335c1d349146101135780635ec01e4d1461018e57806361203265146101b9576100cc565b366100cc57670de0b6b3a7640000341461006757600080fd5b6001339080600181540180825580915050600190039060005260206000200160009091909190916101000a81548173ffffffffffffffffffffffffffffffffffffffff021916908373ffffffffffffffffffffffffffffffffffffffff160217905550005b600080fd5b3480156100dd57600080fd5b506100e6610210565b6040518082815260200191505060405180910390f35b34801561010857600080fd5b50610111610271565b005b34801561011f57600080fd5b5061014c6004803603602081101561013657600080fd5b81019080803590602001909291905050506103e8565b604051808273ffffffffffffffffffffffffffffffffffffffff1673ffffffffffffffffffffffffffffffffffffffff16815260200191505060405180910390f35b34801561019a57600080fd5b506101a3610424565b6040518082815260200191505060405180910390f35b3480156101c557600080fd5b506101ce61046a565b604051808273ffffffffffffffffffffffffffffffffffffffff1673ffffffffffffffffffffffffffffffffffffffff16815260200191505060405180910390f35b60008060009054906101000a900473ffffffffffffffffffffffffffffffffffffffff1673ffffffffffffffffffffffffffffffffffffffff163373ffffffffffffffffffffffffffffffffffffffff161461026b57600080fd5b47905090565b6000809054906101000a900473ffffffffffffffffffffffffffffffffffffffff1673ffffffffffffffffffffffffffffffffffffffff163373ffffffffffffffffffffffffffffffffffffffff16146102ca57600080fd5b600360018054905010156102dd57600080fd5b60006102e7610424565b905060008060018054905083816102fa57fe5b0690506001818154811061030a57fe5b9060005260206000200160009054906101000a900473ffffffffffffffffffffffffffffffffffffffff1691508173ffffffffffffffffffffffffffffffffffffffff166108fc610359610210565b9081150290604051600060405180830381858888f19350505050158015610384573d6000803e3d6000fd5b50600067ffffffffffffffff8111801561039d57600080fd5b506040519080825280602002602001820160405280156103cc5781602001602082028036833780820191505090505b50600190805190602001906103e292919061048f565b50505050565b600181815481106103f557fe5b906000526020600020016000915054906101000a900473ffffffffffffffffffffffffffffffffffffffff1681565b600044426001805490506040516020018084815260200183815260200182815260200193505050506040516020818303038152906040528051906020012060001c905090565b6000809054906101000a900473ffffffffffffffffffffffffffffffffffffffff1681565b828054828255906000526020600020908101928215610508579160200282015b828111156105075782518260006101000a81548173ffffffffffffffffffffffffffffffffffffffff021916908373ffffffffffffffffffffffffffffffffffffffff160217905550916020019190600101906104af565b5b5090506105159190610519565b5090565b61055991905b8082111561055557600081816101000a81549073ffffffffffffffffffffffffffffffffffffffff02191690555060010161051f565b5090565b9056fea2646970667358221220158430d850b5f710a2b373f31506f36838b5b62e542e66ecbb6df1f179b11e1264736f6c634300060a0033",
  "immutableReferences": {},
  "source": "// SPDX-License-Identifier: MIT\npragma solidity ^0.6.0;\n\ncontract Lottery {\n    address public organizer;\n    address payable[] public participants;\n\n    constructor() public {\n        organizer = msg.sender;\n    }\n    modifier onlyAdmin() {\n        require(msg.sender == organizer);\n        _;\n    }\n    receive() external payable {\n        require(msg.value == 1 ether);\n        participants.push(payable(msg.sender));\n    }\n    function getBalance() public view onlyAdmin returns (uint) {\n        // require(msg.sender==organizer);\n        return address(this).balance;\n    }\n\n    function random() public view returns (uint) {\n        return\n            uint(\n                keccak256(\n                    abi.encodePacked(\n                        block.difficulty,\n                        block.timestamp,\n                        participants.length\n                    )\n                )\n            );\n    }\n\n    function selectWinner() public onlyAdmin {\n        require(participants.length >= 3);\n        uint r = random();\n        address payable winner;\n        uint idx = r % participants.length;\n        winner = participants[idx];\n        winner.transfer(getBalance());\n        participants = new address payable[](0);\n    }\n}\n",
  "sourcePath": "C:\\Users\\dixit\\Coding\\WEB3\\Lottery\\contracts\\Lottery.sol",
  "compiler": {
    "name": "solc",
    "version": "0.6.10+commit.00c0fcaf.Emscripten.clang"
  },
  "schemaVersion": "3.4.16",
  "updatedAt": "2024-09-14T12:28:18.560Z",
  "networkType": "ethereum",
  "devdoc": {
    "methods": {}
  },
  "userdoc": {
    "methods": {}
  }
}